:020000040000FA
:100000000C9462000C948A000C948A000C948A0070
:100010000C948A000C948A000C948A000C948A0038
:100020000C948A000C948A000C948A000C948A0028
:100030000C948A000C948A000C948A000C948A0018
:100040000C94CF120C948A000C949D120C9477128D
:100050000C948A000C948A000C948A000C948A00F8
:100060000C9419130C948A00000000002300260051
:10007000290000000000240027002A0000000000E2
:10008000250028002B0004040404040404040202D4
:100090000202020203030303030301020408102007
:1000A0004080010204081020010204081020000012
:1000B0000008000201000003040700000000000027
:1000C0000000381411241FBECFEFD8E0DEBFCDBF33
:1000D00026E0A6EFB4E001C01D92A838B207E1F710
:1000E00014E0A0E0B1E0E2E3FCE302C005900D9271
:1000F000A63FB107D9F710E0C2E6D0E004C02197CF
:10010000FE010E946D19C136D107C9F70E94711412
:100110000C94171E0C94000082E480937C00809164
:100120007A00806480937A0080917A0086FDFCCF0B
:100130008091780090917900089508950895089528
:10014000AF92BF92CF92DF92EF92FF920F931F93E5
:10015000CF93DF936C017B018B01040F151FEB0123
:100160005E01AE18BF08C017D10759F06991D601DA
:10017000ED91FC910190F081E02DC6010995892B4C
:1001800079F7C501DF91CF911F910F91FF90EF900B
:10019000DF90CF90BF90AF900895FC01538D448DB8
:1001A000252F30E0842F90E0821B930B541710F022
:1001B000CF96089501970895FC01918D828D98172F
:1001C00061F0A28DAE0FBF2FB11D5D968C91928D07
:1001D0009F5F9F73928F90E008958FEF9FEF089538
:1001E000FC01918D828D981731F0828DE80FF11D01
:1001F000858D90E008958FEF9FEF0895FC01918D1C
:10020000228D892F90E0805C9F4F821B91098F7314
:10021000992708958BED95E00E94FE0021E0892B3F
:1002200009F420E0822F089580E090E0892B29F0E6
:100230000E940A0181110C9400000895FC01A48D14
:10024000A80FB92FB11DA35ABF4F2C91848D90E0F8
:1002500001968F739927848FA689B7892C93A089DB
:10026000B1898C91837080648C93938D848D981365
:1002700006C00288F389E02D80818F7D80830895F8
:10028000EF92FF920F931F93CF93DF93EC0181E0E6
:10029000888F9B8D8C8D98131AC0E889F98980818D
:1002A00085FF15C09FB7F894EE89FF896083E889C0
:1002B000F98980818370806480839FBF81E090E0B2
:1002C000DF91CF911F910F91FF90EF900895F62E3F
:1002D0000B8D10E00F5F1F4F0F731127E02E8C8DD9
:1002E0008E110CC00FB607FCFACFE889F98980811E
:1002F00085FFF5CFCE010E941E01F1CFEB8DEC0FF3
:10030000FD2FF11DE35AFF4FF0829FB7F8940B8F3A
:10031000EA89FB8980818062CFCFCF93DF93EC01A4
:10032000888D8823B9F0AA89BB89E889F9898C91DD
:1003300085FD03C0808186FD0DC00FB607FCF7CF99
:100340008C9185FFF2CF808185FFEDCFCE010E9499
:100350001E01E9CFDF91CF910895833081F028F419
:10036000813099F08230A9F008958730A9F0883063
:10037000C9F08430B1F4809180008F7D03C08091FA
:1003800080008F7780938000089584B58F7784BD37
:10039000089584B58F7DFBCF8091B0008F778093D7
:1003A000B00008958091B0008F7DF9CF1F93CF9357
:1003B000DF93282F30E0F901E255FF4F8491F901D6
:1003C000E656FF4FD491F901EA57FF4FC491CC2371
:1003D000A9F0162F81110E94AD01EC2FF0E0EE0F75
:1003E000FF1FE458FF4FA591B4918FB7F894EC919B
:1003F000111108C0D095DE23DC938FBFDF91CF9120
:100400001F910895DE2BF8CFCF93DF9390E0FC018E
:10041000E656FF4F24918A579F4FFC018491882311
:10042000C9F090E0880F991FFC01EE58FF4FA5918D
:10043000B491FC01E458FF4FC591D49161110DC0F6
:100440009FB7F8948C91209582238C9388812823E0
:1004500028839FBFDF91CF910895623051F49FB7F9
:10046000F8943C91822F809583238C93E8812E2BE6
:10047000EFCF8FB7F894EC912E2B2C938FBFEACF50
:100480003FB7F89480915A0590915B05A0915C0567
:10049000B0915D0526B5A89B05C02F3F19F00196C8
:1004A000A11DB11D3FBFBA2FA92F982F8827BC01CE
:1004B000CD01620F711D811D911D42E0660F771FF6
:1004C000881F991F4A95D1F708958F929F92AF92F6
:1004D000BF92CF92DF92EF92FF924B015C010E949C
:1004E00040026B017C010E9440026C197D098E095B
:1004F0009F09683E734081059105A8F321E0821AA7
:100500009108A108B10888EEC80E83E0D81EE11C4E
:10051000F11C81149104A104B10429F7FF90EF901C
:10052000DF90CF90BF90AF909F908F9008952FB79E
:10053000F8946091560570915705809158059091F7
:1005400059052FBF08950F931F930E949702609340
:10055000E3057093E4058093E5059093E6058BED44
:1005600095E00E94DC0097FF1DC00E949702009159
:10057000E3051091E4052091E5053091E605601B47
:10058000710B820B930B0091DF051091E005209118
:10059000E1053091E2056017710782079307F8F2D1
:1005A0008FEF9FEF1F910F91089520913205260F35
:1005B0003327331F21323105ECF42091B105FC01C2
:1005C00090E080E0243069F082E00895A091320547
:1005D0002191AC014E5E5A4FA40FB52FB11D2C9343
:1005E0000196861798F380913205680F6093320563
:1005F00080E0089581E008951092B10581E0809334
:10060000B00510928B0561E082E10E94D60161E0A5
:1006100083E10E94D601E9EBF0E080818E7F808348
:1006200080818D7F808388E48093B80085E4809307
:10063000BC000895CF93DF9391E090931105882338
:10064000B9F0C091B800D091BA008091BC008A7B0B
:100650008093BC0060E082E10E94D60160E083E10B
:100660000E94D6010E94FC02D093BA00C093B80049
:10067000DF91CF910895CF92DF92EF92FF920F9387
:100680001F93CF93DF93D091DA0581E0D13208F048
:100690009CC0C091D9050E9440026B017C018091F1
:1006A000B10581116CC082E08093B10581E0809337
:1006B000B0058FEF8093AF051092AE05D093AD05D6
:1006C000A9EBB5E0EDE8F5E080E0D8138DC010921D
:1006D0008C0580918C05CC0FC82BC0938C05809124
:1006E0008B05813009F084C010928B050E94400276
:1006F0006B017C0180918C058093BB008091B305D8
:100700009091B405A091B505B091B605892B8A2BBF
:100710008B2BA1F00E9440020091B3051091B4050B
:100720002091B5053091B6056C197D098E099F0998
:10073000061717072807390708F442C08091BC0044
:1007400083FDD8CF85EC8093BC000E9440026B01F2
:100750007C018091B105823009F44CC08091AF05D5
:100760008F3F09F469C08091AF05803209F466C0FB
:100770008091AF05803309F463C084E026C0809186
:10078000B3059091B405A091B505B091B605892B3C
:100790008A2B8B2B09F483CF0E9440020091B30572
:1007A0001091B4052091B5053091B6056C197D09FD
:1007B0008E099F09061717072807390708F06FCF1A
:1007C0008091B2050E941A0385E01092B80510923C
:1007D000DA051092B705DF91CF911F910F91FF902D
:1007E000EF90DF90CF9008959D9191938F5F6DCFA3
:1007F00085EEA9CF8091B3059091B405A091B50580
:10080000B091B605892B8A2B8B2B09F4A2CF0E94BD
:1008100040020091B3051091B4052091B5053091C7
:10082000B6056C197D098E099F0906171707280759
:10083000390708F08ECFC4CF80E0C7CF82E0C5CFA4
:1008400083E0C3CFCF92DF92EF92FF920F931F937B
:10085000CF93DF93D82FC62F613208F098C00E9443
:1008600040026B017C018091B10581116BC081E078
:100870008093B1058093B0059FEF9093AF051092E0
:10088000AE059C0F9093AD0580938C0580918C05EF
:10089000DD0FD82BD0938C0580918B05813009F02A
:1008A00078C010928B050E9440026B017C01809100
:1008B0008C058093BB008091B3059091B405A09105
:1008C000B505B091B605892B8A2B8B2BA1F00E9420
:1008D00040020091B3051091B4052091B505309107
:1008E000B6056C197D098E099F0906171707280799
:1008F000390708F448C08091BC0083FDD8CF85EC4F
:100900008093BC000E9440026B017C018091B10584
:10091000813009F440C08091AE058C1710F4C0916D
:10092000AE05EDE8F5E0ABE6B5E080E08C1355C030
:100930008C2FDF91CF911F910F91FF90EF90DF905F
:10094000CF9008958091B3059091B405A091B5051D
:10095000B091B605892B8A2B8B2B09F484CF0E948A
:1009600040020091B3051091B4052091B505309176
:10097000B6056C197D098E099F0906171707280708
:10098000390708F070CF8091B2050E941A03C0E0C9
:10099000CFCF85EEB5CF8091B3059091B405A091EE
:1009A000B505B091B605892B8A2B8B2B09F4AECFF8
:1009B0000E9440020091B3051091B4052091B50545
:1009C0003091B6056C197D098E099F090617170726
:1009D0002807390708F09ACFD6CF91919D938F5F62
:1009E000A5CF0895E091630580916205E81730F482
:1009F000F0E0E559FA4F808190E008958FEF9FEF86
:100A0000089590916305809162052FEF3FEF98174D
:100A100048F4E92FF0E0E559FA4F208130E09F5F7C
:100A200090936305C90108958091620590916305D3
:100A3000891B990B0895CF92DF92EF92FF920F934B
:100A40001F93CF93DF937C01CB018A012091B705DF
:100A5000222389F0EB016B01C40ED51ECC15DD05F8
:100A600069F06991D701ED91FC910190F081E02D41
:100A7000C7010995F3CF642F0E94D502C801DF9109
:100A8000CF911F910F91FF90EF90DF90CF9008953D
:100A9000CF93DF931F92CDB7DEB769832091B7055F
:100AA0002223F9F02091DA05203258F021E030E0DD
:100AB000FC013383228390E080E00F90DF91CF919F
:100AC00008958091B805E82FF0E0E754FA4F998136
:100AD00090838F5F8093B8058093DA0581E090E082
:100AE000ECCF61E0CE0101960E94D502F7CF90E0F5
:100AF00080E00895CF92DF92EF92FF920F931F93C1
:100B0000CF93DF93D82EF62E142FD22F211132C07F
:100B1000CE2DD0E02C2D30E02053384F81E090E0F6
:100B2000C330D10514F090E080E0281B390BF901A7
:100B3000F595E795F595E795E20FF31FC9016CE987
:100B40007FEF0E943719E60FF71FC90160E971E0D6
:100B50000E943719E60FF71FC85FDE4F88818E0F9E
:100B60009F2F911D800F911D67E070E00E94371943
:100B7000D1E0D80F81E08093B70588E68093D9054E
:100B80001092B8051092DA0560E088E796E00E94BE
:100B90004805CAE08D2D6C2F0E9417198295807F21
:100BA000682F690F88E796E00E9448058F2D6C2F0B
:100BB0000E9417198295807F682F690F88E796E059
:100BC0000E944805812F6C2F0E9417198295807F03
:100BD000682F690F88E796E00E9448058D2F6C2FDB
:100BE0000E9417198295807F682F690F88E796E029
:100BF0000E944805802F6C2F0E9417198295807FD4
:100C0000682F690F88E796E00E9448058E2D6C2FAB
:100C10000E9417198295807F682F690F88E796E0F8
:100C20000E9448058C2D6C2F0E9417198295807F99
:100C3000682F690F88E796E00E944805DF91CF9101
:100C40001F910F91FF90EF90DF90CF900C943B039A
:100C500060E087E00E94D60160E089E00C94D60154
:100C6000CF93DF93FC01EB01118210828FEF9FEF96
:100C700099838883DA011D921C926BE075E0DB0199
:100C80009E918E91BD0120813181280F391F3183C2
:100C90002083DA012D913C9111972817390710F420
:100CA0008D939C93288139818217930710F499833F
:100CB0008883B5E061307B0711F78081918165E021
:100CC00070E00E94231971836083DF91CF910895B2
:100CD000CF93C82F0E948C00C1111AC09C012150D3
:100CE00031092B3F3340B8F42091010530910205C2
:100CF000E3E0F5E0419151914217530761F445E07B
:100D0000EB30F407B9F7215031092B3F334018F08D
:100D100025E030E002C021E030E040910B05509129
:100D20000C056091FF0470910005E0910001F091C5
:100D30000101DA01AA0FBB1FAF5FBA4F8D939C93DD
:100D40006817790708F4BC018E179F0708F4FC01A7
:100D50004F5F5F4F4530510514F050E040E02150A7
:100D6000310939F7F0930101E093000150930C052C
:100D700040930B05709300056093FF04CF91089595
:100D800060E084E00E94D60160E085E00C94D6012A
:100D9000CF93DF93EDEBF0E08491E9EAF0E0D491BA
:100DA000E5E9F0E0C491CC23C9F081110E94AD01C6
:100DB000EC2FF0E0EE0FFF1FE859FF4FA591B49123
:100DC000EC91ED2331E020E009F430E0832F922F05
:100DD00021E082278170DF91CF91089590E080E03B
:100DE000F7CF0E94C80660E0882339F087E00E94B0
:100DF000D60161E089E00C94D60189E00E94D60119
:100E000061E087E0F8CFCF92DF92EF92FF92CF932D
:100E1000C82F0E9497026B017C01C114D104E10428
:100E2000F10421F4C12CD12C7601C3948091FB04F0
:100E30009091FC04A091FD04B091FE042091F60471
:100E40000097A105B105B9F0C217F9F0A701960105
:100E5000281B390B4A0B5B0BDA01C9018838934117
:100E6000A105B10540F40E94C80680936505109263
:100E70006A0510926905C093F604C092FB04D092F3
:100E8000FC04E092FD04F092FE04CF91FF90EF90FD
:100E9000DF90CF900895FC0101900020E9F7319791
:100EA000AF01481B590BBC018BED95E00C94A000E1
:100EB0008F929F92AF92BF920F931F93CF93DF9326
:100EC000CDB7DEB7A1970FB6F894DEBF0FBECDBF8A
:100ED00019A2423008F44AE08E010F5D1F4F842EA4
:100EE000912CB12CA12CA50194010E944B19E62F45
:100EF000B901CA01EA30F4F4E05DD801EE938D0146
:100F0000232B242B252B79F790E080E0109719F004
:100F1000CD010E944B07A1960FB6F894DEBF0FBE1D
:100F2000CDBFDF91CF911F910F91BF90AF909F9058
:100F30008F900895E95CE1CF0C944B0785E491E034
:100F40000C944B07CF93DF93FC0144815581608162
:100F500071818BED95E00E94A000EC010E949E073C
:100F60008C0F9D1FDF91CF910895CF93DF930E9447
:100F70004B07EC010E949E078C0F9D1FDF91CF91C4
:100F80000895CF92DF92EF92FF92CF93DF936C019F
:100F9000990FEE08FF08F7FE19C06DE28BED95E0A2
:100FA0000E944001EC0166277727CB016C197D096F
:100FB0008E099F094AE00E9458078C0F9D1FDF9100
:100FC000CF91FF90EF90DF90CF9008954AE0C70156
:100FD000B601DF91CF91FF90EF90DF90CF900C940E
:100FE0005807BC0190E080E04AE00C9458076F92EB
:100FF0007F928F929F92AF92BF92CF92DF92EF92A9
:10100000FF920F931F93CF93DF935C014B013A0143
:10101000E90181E08093B70588E68093D9051092B5
:10102000B8051092DA0560E088E796E00E9448056E
:101030000E943B0367E088E60E9422041092630549
:101040008093620588E796E00E940105A114B1042F
:1010500051F0982F929597708F702AE0929F800D93
:101060001124F501808388E796E00E940105982FFE
:1010700092959F702AE0B22E8F709B9D800D112457
:10108000F401808388E796E00E940105982F9295ED
:1010900093708F709B9D800D1124F301808388E7EE
:1010A00096E00E940105209741F0982F92959F703D
:1010B0008F709B9D800D1124888388E796E00E94A5
:1010C00001050115110551F0982F92959F708F70B1
:1010D000FAE09F9F800D1124F801808388E796E055
:1010E0000E940105E114F10451F0982F92959F7030
:1010F0008F70FAE09F9F800D1124F701808388E7AD
:1011000096E00E940105C114D10451F0982F9295E8
:101110009F708F70FAE09F9F800D1124F6018083ED
:10112000DF91CF911F910F91FF90EF90DF90CF90C3
:10113000BF90AF909F908F907F906F900895AF92E7
:10114000BF92CF92DF92EF92FF920F931F93CF93B4
:10115000DF9300D0CDB7DEB75C011A8288E18983C6
:10116000809164058823C1F1D12CC12CF12CE12C94
:1011700010E000E030E020E0AE014F5F5F4FBE01C5
:101180006E5F7F4F90E080E00E94F70727E030E03D
:10119000A114B10429F08CE3A80EB11C26E030E0C4
:1011A000898190E02817390774F481E00F900F903F
:1011B000DF91CF911F910F91FF90EF90DF90CF9033
:1011C000BF90AF9008958217930721F48A818A1502
:1011D0001B045CF780E0EACFA114B10431F3DBCF4C
:1011E000CF92DF92EF92FF920F931F93CF93DF93F3
:1011F00088E491E00E94B50780916505882309F491
:1012000058C00E94C806882331F160E084E00E9443
:10121000D60161E085E00E94D6010E94970280918C
:101220006405882381F0D12CC12CF12CE12C10E035
:1012300000E030E020E040E155E06FE075E087EF4E
:1012400094E00E94F70760EB74E080E090E00E9479
:1012500065020E94C00681E090E090936A05809349
:101260006905CAE0D0E08091690590916A05892BF3
:1012700081F064EF71E080E090E00E9465020E94DE
:10128000C80681111FC010926A0510926905219746
:1012900051F70E9428068091690590916A05892B73
:1012A000B1F480E791E00E94B5070E94F106109228
:1012B0006505DF91CF911F910F91FF90EF90DF9027
:1012C000CF90089585E591E00E94B507E0CF8AE7C9
:1012D00091E0DF91CF911F910F91FF90EF90DF9000
:1012E000CF900C94B507CF92DF92EF92FF920F93BD
:1012F0001F9361E084E00E94D60160E085E00E94D7
:10130000D6010E94970280916405882381F0D12C38
:10131000C12CF12CE12C10E000E030E020E04EE0A8
:1013200055E06DE075E090E080E00E94F7071F91C6
:101330000F91FF90EF90DF90CF900895CF92DF92C2
:10134000EF92FF921F93CF93DF9380E991E00E9489
:10135000B5070E94C806182F811178C00E94730932
:101360000E9497026B017C01D0E0C0E00E94C80699
:10137000811121C0C83B8BE0D807ECF40E94970292
:10138000EB01CC19DD091111F1CFC83E83E0D8077C
:101390006CF30E94C00668EE73E080E090E00E946B
:1013A000650288EEC80E83E0D81EE11CF11C0E9485
:1013B000730911E0DBCF0E94C006C83BDB407CF51F
:1013C00083E090E090936A058093690564EF71E093
:1013D00080E090E00E946502CAE0D0E0809169055B
:1013E00090916A05892B09F10E9473096EE170E002
:1013F00080E090E00E9465020E94C00664EF71E008
:1014000080E090E00E9465020E94C806882331F1C6
:1014100010926A0510926905219701F706C082E0D3
:1014200090E090936A05809369050E942806809158
:10143000690590916A05892BB1F488EB91E00E94CF
:10144000B5070E94F10681E080936505DF91CF9199
:101450001F91FF90EF90DF90CF9008958DE991E07C
:101460000E94B507D9CF84EC91E0DF91CF911F9115
:10147000FF90EF90DF90CF900C94B5070F931F93E0
:10148000CF93DF938B01EA01FC01608170E090E073
:1014900080E04AE00E94580781EC92E00E949C079D
:1014A000F80180818A3020F48CED91E00E949C0745
:1014B000F801608170E090E080E04AE00E94580707
:1014C0002097B1F081EC92E00E949C0788818A30DD
:1014D00020F48CED91E00E949C07688170E090E020
:1014E00080E04AE0DF91CF911F910F910C94580753
:1014F000DF91CF911F910F910895CF92DF92EF92DC
:10150000FF920F931F93CF93DF93CDB7DEB7299749
:101510000FB6F894DEBF0FBECDBF009731F00E942A
:10152000C10789E192E00E949C0786E192E00E9457
:101530009C070E948C000E94C107AE014B5F5F4F69
:10154000BE016D5F7F4FCE0101960E9430068EED89
:1015500091E00E949C0789819A810E94F10784EEA4
:1015600091E00E949C070E94C806882309F474C079
:1015700085ED91E00E949C0780916505882309F420
:101580006EC08FEE91E00E949C0781E092E00E9485
:101590009C0788E592E00E94C1078EE092E00E94DD
:1015A0009C0788E290E00E94C1078CE192E00E94D3
:1015B0009C078091690590916A050E94C1078091FE
:1015C00064058823C1F1D12CC12CF12CE12C10E051
:1015D00000E030E020E0AE01475F5F4FBE01685F92
:1015E0007F4FCE0107960E94F70787E292E00E94A4
:1015F0009C07AE01495F5F4FBE01685F7F4FCE0120
:1016000009960E943E0A84E392E00E949C0750E003
:1016100040E06FE075E080E195E00E943E0A82E4E0
:1016200092E00E949C0750E040E06DE075E08EE0A3
:1016300095E00E943E0A0E949E0729960FB6F894F4
:10164000DEBF0FBECDBFDF91CF911F910F91FF90F5
:10165000EF90DF90CF9008958BE891E08BCF89EFEA
:1016600091E091CFFC0180819181009711F00C9461
:10167000DA1660E070E0CB010895FC012481358129
:10168000232B39F421E0FB018081882349F020E0FD
:1016900007C0808191810E94661B21E0892BB9F7E8
:1016A000822F08950F931F93CF93DF93EC018881CE
:1016B0009981009759F02A813B812617370730F02E
:1016C00081E0DF91CF911F910F9108958B016F5FA2
:1016D0007F4F0E94981A009759F0998388831B8343
:1016E0000A832C813D81232B59F7FC011082E8CF1E
:1016F00080E0E7CFCF93DF93EC0188819981009759
:1017000011F00E940F1A198218821D821C821B82FE
:101710001A82DF91CF910895EF92FF920F931F935A
:10172000CF93DF93EC017B01198218821B821A820E
:101730001D821C82FB0101900020E9F731978F0187
:10174000061B170BB8010E94520B811109C0CE0174
:10175000DF91CF911F910F91FF90EF900C947A0B36
:101760001D830C83B70188819981DF91CF911F91EF
:101770000F91FF90EF900C946F1B9F92AF92BF92CE
:10178000CF92DF92EF92FF920F931F93CF93DF934D
:101790007C016B015A0189012417350720F48B2D38
:1017A0005901042F182F67E471E0C7010E948C0BC8
:1017B000D6011496CD91DC91AC16BD0650F50C17F0
:1017C0001D0708F4E801D601ED91FC911197EC0F8B
:1017D000FD1F908010820D911C910A0D1B1D01159B
:1017E000110571F0F80101900020E9F731975F01D0
:1017F000A01AB10AB501C7010E94520B811116C08F
:10180000C7010E947A0BD6018D919C91C80FD91FF8
:101810009882C701DF91CF911F910F91FF90EF90B8
:10182000DF90CF90BF90AF909F900895F701B58261
:10183000A482B801808191810E946F1BE4CF8F92B6
:101840009F92AF92BF92CF92DF92EF92FF920F934F
:101850001F93CF93DF9300D0CDB7DEB78C01CB01C0
:101860000E94A2070E9497024B015C01C12CD12C5F
:1018700076018BED95E00E94FE00892B89F480EAC9
:10188000C8168BEBD8068DE0E806F104D8F50E9467
:1018900097026B017C01C818D908EA08FB08E9CF58
:1018A000E0EACE16EBEBDE06EDE0EE06F10450F5D5
:1018B00067E471E0C8010E948C0B0E94A30297FDAF
:1018C00026C08A30910519F189831A82F801E480D3
:1018D000F580FFEFEF1AFF0AB701C8010E94520B13
:1018E000882359F3F8012081318184819581BE01DB
:1018F0006F5F7F4F820F931F0E946F1BF801F5826D
:10190000E482DBCF67E471E0C8010E948C0BC80160
:101910000F900F90DF91CF911F910F91FF90EF905B
:10192000DF90CF90BF90AF909F908F900895FC0173
:1019300080819181009711F00C940F1A089585ED24
:101940008093BC008091B3059091B405A091B5053A
:10195000B091B6050796A11DB11D23E0B695A795D8
:10196000979587952A95D1F72091BC0024FD03C057
:101970001092B10508954091B3055091B40560915E
:10198000B5057091B605452B462B472B69F300979B
:10199000A105B10541F025E32A95F1F70000019773
:1019A000A109B109E1CF8091B2050C941A034F92BD
:1019B0005F926F927F928F929F92AF92BF92CF92DF
:1019C000DF92EF92FF920F931F93CF93DF93CDB7E8
:1019D000DEB768970FB6F894DEBF0FBECDBF80911B
:1019E0006605882321F082E592E00E94B5078BED21
:1019F00095E00E94FE00892B09F462C467E471E05F
:101A0000CE010D960E948C0B67E471E0CE01019629
:101A10000E948C0BBE016F5F7F4FCE0107960E9424
:101A20001F0C8D859E85009789F16F8178856115E2
:101A3000710551F14F8558892B853C854217530715
:101A400018F10E946F1B8B859C859A8B898B1C8655
:101A50001B86CE0107960E94970CCE0101960E942C
:101A6000970CED84FE84E114F10409F1F7018191F2
:101A70007F018823E1F0082E000C990B0E94551B72
:101A8000F70131978083F2CF0E940F1A8F819885DA
:101A90009E878D8789859A85988B8F878B859C8576
:101AA0009A8B898B18861F821A861986D0CF87E673
:101AB00092E00E949C07CE010D960E94A20721E0B1
:101AC00030E050E040E0BE01635F7F4FCE01019601
:101AD0000E94BD0B62E772E0CE0101960E943D0BB1
:101AE000182FCE0101960E94970C112309F47BC098
:101AF0008091660591E089278093660521E030E0BA
:101B000050E040E0BE01635F7F4FCE0101960E942E
:101B1000BD0B65E772E0CE0101960E943D0B182FC8
:101B2000CE0101960E94970C112309F457C285E952
:101B300092E00E949C0781E08093B70588E680933D
:101B4000D9051092B8051092DA0561E188E796E0B0
:101B50000E9448050E943B0362E088E60E9422043E
:101B6000109263058093620588E796E00E94010564
:101B70007C0188E796E00E9401058C01B7016F7730
:101B80007727072E000C880B990B0E941D176B01FD
:101B90007C01B80126E0759567952A95E1F7072E37
:101BA000000C880B990B0E941D1720E030E040E8E4
:101BB0005EE30E947C17A70196010E9472186B01D8
:101BC0007C014B015C01AC019B010E94121988232E
:101BD00009F475C183EA92E00E944B078FEA92E014
:101BE0000E94B50776C222E030E050E040E0BE013E
:101BF000635F7F4FCE0101960E94BD0B64E772E0E8
:101C0000CE0101960E943D0B182FCE0101960E9435
:101C1000970C112309F491C024E030E042E050E039
:101C2000BE01635F7F4FCE0101960E94BD0BCE01C6
:101C300001960E94320B062F972ECE0101960E942C
:101C4000970C27E030E045E050E0BE01635F7F4F36
:101C5000CE0101960E94BD0BCE0101960E94320B6F
:101C6000E62EA72ECE0101960E94970C2AE030E0C6
:101C700048E050E0BE01635F7F4FCE0101960E94B5
:101C8000BD0BCE0101960E94320BC62EB72ECE019F
:101C900001960E94970C2DE030E04BE050E0BE0131
:101CA000635F7F4FCE0101960E94BD0BCE0101966E
:101CB0000E94320BD62ECE0101960E94970C20E195
:101CC00030E04EE050E0BE01635F7F4FCE010196F1
:101CD0000E94BD0BCE0101960E94320BF62ECE0162
:101CE00001960E94970C23E130E041E150E0BE01F3
:101CF000635F7F4FCE0101960E94BD0BCE0101961E
:101D00000E94320B162FCE0101960E94970C802F55
:101D1000992D892B09F4F2CE8E2D9A2D892B09F459
:101D2000EDCE8C2D9B2D892B09F4E8CE20E04D2D96
:101D30006F2D812F0E947A05E1CE21E030E050E046
:101D400040E0BE01635F7F4FCE0101960E94BD0B54
:101D500067E772E0CE0101960E943D0B182FCE017D
:101D600001960E94970C1123C9F00E94F0088091FF
:101D70006605882309F4C2CE69E772E0CE010196B8
:101D80000E948C0BBE016F5F7F4FCE0107960E94B1
:101D90001F0CCE0107960E94970C46C021E030E050
:101DA00050E040E0BE01635F7F4FCE0101960E948C
:101DB000BD0B61EB72E0CE0101960E943D0B182F26
:101DC000CE0101960E94970C112319F00E949E09E2
:101DD000CECF21E030E050E040E0BE01635F7F4FB6
:101DE000CE0101960E94BD0B61E972E0CE01019621
:101DF0000E943D0B182FCE0101960E94970C1123D3
:101E0000C1F029893A8941E050E0BE01635F7F4F0C
:101E1000CE0101960E94BD0BCE0101960E94320BAD
:101E200070936A0560936905CE0101960E94970C34
:101E300065CE21E030E050E040E0BE01635F7F4FBF
:101E4000CE0101960E94BD0B63E972E0CE010196BE
:101E50000E943D0B182FCE0101960E94970C112372
:101E600009F44CCE29893A8941E050E0BE01635F14
:101E70007F4FCE0101960E94BD0BCE0101960E94BC
:101E8000320B7B01CE0101960E94970C10E000E01E
:101E90000E151F050CF06BCF0E949E0968E873E1D8
:101EA00080E090E00E9465020E94F00868E873E11B
:101EB00080E090E00E9465020F5F1F4FE9CF26018E
:101EC0003701E89477F82FEF3FEF4FE75FE7C30163
:101ED000B2010E94121981110DC02FEF3FEF4FE7A1
:101EE0005FE7C301B2010E94161718161CF487EAB7
:101EF00092E072CE2FEF3FEF4FE75FE4C701B601EC
:101F00000E940D1918161CF48BEA92E065CE2FEF93
:101F10003FEF4FE75FECC701B6010E94161787FD40
:101F2000F3CF20E030E0A901C701B6010E941617E7
:101F300087FF0BC06DE28BED95E00E9440014601EA
:101F40005701B7FAB094B7F8B0942AE037ED43EAF6
:101F50005BE3C501B4010E9472184B015C010E9451
:101F6000DE186B017C010E941B179B01AC01C501AF
:101F7000B4010E9471184B015C014AE0C701B6012F
:101F80000E9458076EE28BED95E00E94400120E030
:101F900030E040E251E4C501B4010E947C174B01DE
:101FA0005C010E94DE186B01CB010E94F107B601B3
:101FB00090E080E00E941B179B01AC01C501B401B9
:101FC0000E94711820E030E040E251E40E947C174A
:101FD0000E94DE18CB010E94F10700CE21E030E024
:101FE00050E040E0BE01635F7F4FCE0101960E944A
:101FF000BD0B63EB72E0CE0101960E943D0B182FE2
:10200000CE0101960E94970C112309F47FC090E045
:1020100080E00E947D0A85EB92E00E949C0700917F
:102020000B0510910C0595E0E92EF12C1016110608
:102030000CF069C0015011098AE192E00E949C07EE
:10204000F801EE0FFF1FEF5FFA4F808191810E9430
:10205000F107F1E0EF1AF10849F70E949E07AE017F
:102060004D5E5F4FBE016B5E7F4FCE0147960E9473
:10207000300683EC92E00E949C078F89988D0E9425
:10208000F1078DEC92E00E949C078D899E890E9449
:10209000F10789ED92E00E949C078B899C890E9440
:1020A000F1070E949E0785EE92E00E949C078091B6
:1020B0000001909101010E94F10789ED92E00E94D8
:1020C0009C078091FF04909100050E94F1070E94F7
:1020D0009E0780916605882399F169E772E0CE0139
:1020E00001960E948C0BBE016F5F7F4FCE01079659
:1020F0000E941F0CCE0107960E94970CCE010196FC
:102100000E94970C1DC004E010E096CF21E030E063
:1021100050E040E0BE01635F7F4FCE0101960E9418
:10212000BD0B6CED71E0CE0101960E943D0B182FA6
:10213000CE0101960E94970C1123F1F00E9428060F
:10214000CE010D960E94970C81E068960FB6F89428
:10215000DEBF0FBECDBFDF91CF911F910F91FF90DA
:10216000EF90DF90CF90BF90AF909F908F907F9037
:102170006F905F904F90089521E030E050E040E094
:10218000BE01635F7F4FCE0101960E94BD0B61EFE0
:1021900072E0CE0101960E943D0B182FCE010196F0
:1021A0000E94970C112349F061E087E00E94D6015C
:1021B00060E089E00E94D601C3CF21E030E050E02A
:1021C00040E0BE01635F7F4FCE0101960E94BD0BD0
:1021D00063EF72E0CE0101960E943D0B182FCE01F5
:1021E00001960E94970C60E0111119C021E030E0C7
:1021F00050E040E0BE01635F7F4FCE0101960E9438
:10220000BD0B65EF72E0CE0101960E943D0B182FC9
:10221000CE0101960E94970C112331F061E087E016
:102220000E94D60161E0C5CF21E030E050E040E0FF
:10223000BE01635F7F4FCE0101960E94BD0B67EF29
:1022400072E0CE0101960E943D0B182FCE0101963F
:102250000E94970C112309F473CF89EF92E00E943A
:10226000B50786E093E00E94B50784E193E00E9401
:10227000B50788E393E00E94B50781E693E00E94EA
:10228000B5078DE693E00E94B5078CE793E00E94C6
:10229000B5078CE893E00E94B50786EA93E00E94B8
:1022A000B5078EEA93E00E94B5078CEB93E00E949D
:1022B000B5078DEE93E00E94B5078CEF93E090CCCC
:1022C00080E043CFAF92BF92CF92DF92EF92FF9226
:1022D0000F931F93CF93DF93CDB7DEB7CA56D109C3
:1022E0000FB6F894DEBF0FBECDBFA82EAE01475982
:1022F0005F4FBE0169597F4FCE018B599F4F0E949E
:1023000030060E948C00181619060CF472C080E08A
:102310000E940307A7961FAE1EAEA79781E00E94FA
:1023200068060E94C806B82E882309F478C0109267
:10233000FA041092F9041092F804009169051091C2
:102340006A050115110509F487C089E094E00130A0
:10235000110539F085E394E00230110511F487E1AD
:1023600094E09F938F931F930F938FE594E09F9337
:102370008F938E010F5F1F4F1F930F930E94761B49
:10238000C8010E94B50785E392E00E949C0747EFD1
:1023900054E06FE075E080E195E00E943E0A0E9403
:1023A0009E0783E894E00E949C074AEF54E069EF9F
:1023B00074E088EF94E00E943E0A0E949E070FB6E8
:1023C000F894DEBF0FBECDBF10E000E0C801C659D3
:1023D000DF4F0FB6F894DEBF0FBECDBFDF91CF91B8
:1023E0001F910F91FF90EF90DF90CF90BF90AF9033
:1023F00008958C3F934054F081E00E9403078CEFD6
:1024000093E0A7969FAF8EAFA79788CF1092FB045B
:102410001092FC041092FD041092FE0482CF809171
:10242000F80481118ACF8091F904811186CF8091BF
:10243000FA04811182CFD12CC12CF12CE12C10E0B7
:1024400000E030E020E048EF54E069EF74E08AEF0C
:1024500094E00E94F70771CFBB2029F080916505B9
:10246000882309F4B3CFA7968EAD9FADA797893285
:10247000910538F4B1101BC00E949E0904E010E0E1
:10248000A5CF883522E0920790F0BB2081F08C3FE9
:10249000934029F40E94F00805E010E097CFAA20AD
:1024A00031F090E080E00E949F088111F3CFA9965F
:1024B0008EAD9FADA997899710F4BB20A9F0AB967C
:1024C0008EAD9FADAB978835924008F47FCFBB208F
:1024D00009F47CCF8EEF9FEF0E949F08882309F4B8
:1024E00075CF07E010E072CF09E010E06FCF1F92C8
:1024F0000F920FB60F9211242F933F934F935F9338
:102500006F937F938F939F93AF93BF93EF93FF93BB
:102510008BED95E00E941E01FF91EF91BF91AF916D
:102520009F918F917F916F915F914F913F912F91EB
:102530000F900FBE0F901F9018951F920F920FB61D
:102540000F9211242F938F939F93EF93FF93E0911A
:10255000EB05F091EC058081E091F105F091F20539
:1025600082FD1BC090818091F4058F5F8F73209155
:10257000F505821741F0E091F405F0E0E552FA4FDD
:10258000958F8093F405FF91EF919F918F912F91FB
:102590000F900FBE0F901F9018958081F4CF1F925F
:1025A0000F920FB60F9211242F933F938F939F9307
:1025B000AF93BF938091560590915705A091580510
:1025C000B09159053091550523E0230F2D3758F56B
:1025D0000196A11DB11D209355058093560590933A
:1025E0005705A0935805B093590580915A059091CD
:1025F0005B05A0915C05B0915D050196A11DB11D23
:1026000080935A0590935B05A0935C05B0935D059C
:10261000BF91AF919F918F913F912F910F900FBEDE
:102620000F901F90189526E8230F0296A11DB11D4B
:10263000D2CF1F920F920FB60F9211242F933F9378
:102640004F935F936F937F938F939F93AF93BF93BA
:10265000EF93FF938091B900887F803609F44AC0D8
:10266000F0F5883209F4A7C018F5803109F49BC051
:10267000B8F4882309F4F9C0883009F494C0FF91B4
:10268000EF91BF91AF919F918F917F916F915F91EA
:102690004F913F912F910F900FBE0F901F90189563
:1026A000883109F488C0803251F78093AF0514C097
:1026B000803409F49DC040F48033B9F38833F9F6CF
:1026C0008093AF0585ECB0C0803509F485C08835AE
:1026D00009F496C0883499F60E949F0CD0CF8839AF
:1026E00009F48CC038F5883729F050F4883611F099
:1026F000803729F683E08093B1051092540557C0C6
:10270000883809F47BC0803919F0803809F0B7CFD8
:1027100080915405803208F071C0E091540581E049
:102720008E0F809354058091BB00F0E0EC5CFA4F73
:1027300080833DC0803B39F0E0F4803A09F479C0F1
:10274000883A09F09CCF84E08093B105109233055C
:1027500010923205E0916005F09161050995809134
:10276000320581110FC081E080933205109212056D
:1027700009C0803C09F4A6CF883C09F4A3CF883B6C
:1027800009F07DCFE091330581E08E0F8093330512
:10279000F0E0EE5EFA4F80818093BB0090913305AC
:1027A0008091320529C080918C058093BB0085EC17
:1027B0008093BC0064CF9091AE058091AD059817D1
:1027C00058F5E091AE0581E08E0F8093AE05F0E004
:1027D000E357FA4F8081E9CFE091AE0581E08E0F9B
:1027E0008093AE058091BB00F0E0E357FA4F808301
:1027F0009091AE058091AD059817C8F285E8D8CFC5
:10280000E091AE0581E08E0F8093AE058091BB0014
:10281000F0E0E357FA4F80838091B00581115CCFDF
:1028200081E080938B0584EA8093BC001092B1050F
:1028300026CF85EC8093BC001092B10580915405A1
:10284000803230F4E0915405F0E0EC5CFA4F1082F5
:102850006091540570E0E0915E05F0915F0584E3BE
:1028600095E00995109254050ACF1092AF0534CF28
:10287000EBEDF5E01382128288EE93E0A0E0B0E089
:1028800084839583A683B78325E231E03183208357
:1028900025EC30E03587248724EC30E03787268725
:1028A00020EC30E0318B208B21EC30E0338B228B1D
:1028B00022EC30E0358B248B26EC30E0378B268BF6
:1028C000118E128E138E148EE8E7F6E013821282B8
:1028D00084839583A683B78387E391E09183808384
:1028E0000895CF93DF9300D000D000D01F92CDB7D2
:1028F000DEB7789484B5826084BD84B5816084BD80
:1029000085B5826085BD85B5816085BD80916E008D
:10291000816080936E0010928100809181008260BE
:1029200080938100809181008160809381008091FB
:1029300080008160809380008091B10084608093EA
:10294000B1008091B00081608093B00080917A00E6
:10295000846080937A0080917A00826080937A000C
:1029600080917A00816080937A0080917A008068FB
:1029700080937A001092C100E091EB05F091EC0594
:1029800082E08083E091E705F091E8051082E09114
:10299000E905F091EA058FEC80831092F305E09150
:1029A000EF05F091F00586E08083E091ED05F09170
:1029B000EE05808180618083E091ED05F091EE0568
:1029C000808188608083E091ED05F091EE05808143
:1029D00080688083E091ED05F091EE0580818F7D28
:1029E000808380E69AEEA0E0B0E08093DF059093CC
:1029F000E005A093E105B093E20589E994E00E9427
:102A0000B50710926305109262051092B8051092F6
:102A1000DA050E94FC028DE990E0909361058093B5
:102A200060058EE990E090935F0580935E05D12C60
:102A3000C12CF12CE12C10E000E030E020E0AE01F0
:102A40004F5F5F4FBE016E5F7F4FCE0103960E94C6
:102A5000F7078B818C3308F0F3C08A818C3308F040
:102A6000EFC08981883108F0EBC081E08093640574
:102A700082EC94E00E94B50761E084E00E940402C9
:102A800061E085E00E94040260E080E10E940402AF
:102A900062E08FE00E94040261E08DE00E94040287
:102AA00060E08DE00E94D60161E087E00E940402B0
:102AB00061E089E00E9404020E94280660E08DE047
:102AC0000E94D60181E0809366050E94C80680932B
:102AD00065050E94F10681E00E9468060CE310E0A3
:102AE00080916605882319F0C8010E947D0A0E9422
:102AF000D70C882311F00CE310E068EE73E080E05F
:102B000090E00E9465020150110951F7109266058C
:102B10008CEE94E00E94B5070E949E0981E00E941D
:102B2000680681E00E9462116CE3A62EB12C552448
:102B3000539454E6652E712C4CE3E42EF12C68EE90
:102B400073E080E090E00E94650280E00E946211E4
:102B50006C010091690510916A050115110509F4D0
:102B600079C080916705909168050196000F111F4B
:102B7000081719070CF469C09093680580936705DE
:102B8000C0906705D0906805460181E088229924AD
:102B900061E0C0FE60E08DE00E94D60161E00C15AE
:102BA0001D0509F060E089E00E94D601682D87E0EC
:102BB0000E94D60180916605882319F0C7010E9402
:102BC0007D0A0E94D70C81E0E81AF10809F0B7CF1E
:102BD000409064054420A1F0CE0101966C0101965D
:102BE0007C018E010D5F1F4F9E012C5F3F4FAE0198
:102BF0004B5F5F4FBE016A5F7F4F05960E94F707EC
:102C00008C81813009F455C05092020180E00E940D
:102C100068060E94C80691E020916505281390E09F
:102C2000892F0E94621180E090E0892B09F484CF03
:102C30000E940A01882309F47ACF0E94000077CF0E
:102C40001092640585ED94E015CF109268051092FE
:102C5000670596CF99E0C916D10421F087E0C81620
:102C6000D10421F580916705909168050196823025
:102C70009105BCF4909368058093670561E08091AD
:102C8000670590916805892B09F460E08C2D0E94FE
:102C9000D60187E099E0C916D10409F089E060E027
:102CA00087CF1092680510926705E8CF0E94F10661
:102CB00081CF80910201882309F4A8CF8A818330D3
:102CC00041F49D81923009F0A1CF9CE3892E912C93
:102CD0000BC08A3009F09ACF9D8124EC822E992472
:102CE0009A94933009F092CF90E04981FC01EC5E18
:102CF000FE4F208130E0029709F044C0E42FF0E05D
:102D0000437031F4CF01B3010E943719892BE9F5E3
:102D100051E040E0EF2B09F050E0852F942F820F17
:102D2000931F2B8130E0AC01465051092417350721
:102D30000CF46CCF821793070CF468CF4420B9F1E0
:102D4000CE0101966C0101967C018E010D5F1F4F33
:102D50009E012C5F3F4FAE014B5F5F4FBE016A5F2C
:102D60007F4F05960E94F707C401B5010E943719ED
:102D70003E81380F4D8181E0840F3C3348F03C5355
:102D8000482FF9CF90E080E0CACF81E090E0C7CF34
:102D90003E83C401B5010E943719460F4D83C98097
:102DA000EA800B812C81632F8F810E947A0510921B
:102DB00002012CCF1F93FC0199278827BC01E894BE
:102DC00011911032E9F3193010F01E30C8F31B32A4
:102DD00051F01D3249F4689406C00E940117610F3A
:102DE000711D811D911D119110531A30B0F33EF4E5
:102DF00090958095709561957F4F8F4F9F4F1F9154
:102E00000895592F482F372F262F660F771F881FB9
:102E1000991F660F771F881F991F620F731F841FEA
:102E2000951F660F771F881F991F08950E945817D6
:102E300008F481E00895E89409C097FB3EF490956A
:102E40008095709561957F4F8F4F9F4F9923A9F083
:102E5000F92F96E9BB279395F69587957795679512
:102E6000B795F111F8CFFAF4BB0F11F460FF1BC056
:102E70006F5F7F4F8F4F9F4F16C0882311F096E9E9
:102E800011C0772321F09EE8872F762F05C0662397
:102E900071F096E8862F70E060E02AF09A95660F50
:102EA000771F881FDAF7880F9695879597F9089509
:102EB000990F0008550FAA0BE0E8FEEF161617064B
:102EC000E807F907C0F012161306E407F50798F0B3
:102ED000621B730B840B950B39F40A2661F0232BCC
:102EE000242B252B21F408950A2609F4A140A69548
:102EF0008FEF811D811D08950E948F170C9400187B
:102F00000E94F21738F00E94F91720F0952311F073
:102F10000C94E9170C94EF1711240C9434180E94A8
:102F2000111870F3959FC1F3950F50E0551F629FE4
:102F3000F001729FBB27F00DB11D639FAA27F00D12
:102F4000B11DAA1F649F6627B00DA11D661F829F39
:102F50002227B00DA11D621F739FB00DA11D621F1E
:102F6000839FA00D611D221F749F3327A00D611D3B
:102F7000231F849F600D211D822F762F6A2F11241D
:102F80009F5750409AF0F1F088234AF0EE0FFF1F50
:102F9000BB1F661F771F881F91505040A9F79E3FA7
:102FA000510580F00C94E9170C9434185F3FE4F35A
:102FB000983ED4F3869577956795B795F795E795FD
:102FC0009F5FC1F7FE2B880F911D9695879597F906
:102FD000089597F99F6780E870E060E008959FEF9B
:102FE00080EC089500240A941616170618060906A0
:102FF000089500240A94121613061406050608956F
:10300000092E0394000C11F4882352F0BB0F40F4F6
:10301000BF2B11F460FF04C06F5F7F4F8F4F9F4F36
:10302000089557FD9058440F551F59F05F3F71F0B8
:103030004795880F97FB991F61F09F3F79F087951F
:103040000895121613061406551FF2CF4695F1DFA8
:1030500008C0161617061806991FF1CF8695710538
:10306000610508940895E894BB2766277727CB016C
:1030700097F908952F923F924F925F926F927F92AD
:103080008F929F92AF92BF92CF92DF92EF92FF9278
:103090000F931F93CF93DF93CDB7DEB7CA1BDB0B24
:1030A0000FB6F894DEBF0FBECDBF09942A883988C9
:1030B00048885F846E847D848C849B84AA84B984D0
:1030C000C884DF80EE80FD800C811B81AA81B981DC
:1030D000CE0FD11D0FB6F894DEBF0FBECDBFED01F0
:1030E00008955058BB27AA270E9489180C940018ED
:1030F0000E94F21738F00E94F91720F039F49F3F30
:1031000019F426F40C94EF170EF4E095E7FB0C94F9
:10311000E917E92F0E94111858F3BA1762077307CD
:103120008407950720F079F4A6F50C9433180EF473
:10313000E0950B2EBA2FA02D0B01B90190010C01C7
:10314000CA01A0011124FF27591B99F0593F50F4DF
:10315000503E68F11A16F040A22F232F342F442737
:10316000585FF3CF469537952795A795F04053952F
:10317000C9F77EF41F16BA0B620B730B840BBAF0FF
:103180009150A1F0FF0FBB1F661F771F881FC2F76A
:103190000EC0BA0F621F731F841F48F4879577957E
:1031A0006795B795F7959E3F08F0B0CF9395880F38
:1031B00008F09927EE0F9795879508950E941918A2
:1031C00088F09F5798F0B92F9927B751B0F0E1F0E8
:1031D000660F771F881F991F1AF0BA95C9F714C098
:1031E000B13091F00E943318B1E008950C94331877
:1031F000672F782F8827B85F39F0B93FCCF38695D1
:1032000077956795B395D9F73EF49095809570952D
:1032100061957F4F8F4F9F4F08950E94581708F474
:103220008FEF08950E945817880B990B0895991BEA
:1032300079E004C0991F961708F0961B881F7A95AD
:10324000C9F780950895AA1BBB1B51E107C0AA1FAF
:10325000BB1FA617B70710F0A61BB70B881F991F37
:103260005A95A9F780959095BC01CD01089597FBDB
:10327000072E16F4009407D077FD09D00E94231979
:1032800007FC05D03EF4909581959F4F0895709569
:1032900061957F4F0895A1E21A2EAA1BBB1BFD0169
:1032A0000DC0AA1FBB1FEE1FFF1FA217B307E40725
:1032B000F50720F0A21BB30BE40BF50B661F771F7D
:1032C000881F991F1A9469F760957095809590955D
:1032D0009B01AC01BD01CF010895EE0FFF1F0590CA
:1032E000F491E02D09940F931F93CF93DF938230D5
:1032F000910510F482E090E0E0918606F091870657
:1033000030E020E0B0E0A0E0309799F421153105DD
:1033100009F44AC0281B390B24303105D8F58A81BD
:103320009B816115710589F1FB0193838283FE0105
:1033300011C0408151810281138148175907E0F083
:103340004817590799F4109761F012960C93129749
:1033500013961C933296CF01DF91CF911F910F915D
:1033600008950093860610938706F4CF2115310542
:1033700051F04217530738F0A901DB019A01BD0152
:10338000DF01F801C1CFEF01F9CF90938706809359
:103390008606CDCFFE01E20FF31F81939193225059
:1033A000310939832883D7CF20918406309185064F
:1033B000232B41F4209105013091060130938506BD
:1033C00020938406209103013091040121153105D9
:1033D00041F42DB73EB74091070150910801241BDD
:1033E000350BE0918406F0918506E217F307A0F40F
:1033F0002E1B3F0B2817390778F0AC014E5F5F4F4B
:103400002417350748F04E0F5F1F509385064093F1
:103410008406819391939FCFF0E0E0E09CCFCF931F
:10342000DF930097E9F0FC01329713821282A0919A
:103430008606B0918706ED0130E020E01097A1F4F8
:1034400020813181820F931F20918406309185065F
:103450002817390709F061C0F0938506E0938406C8
:10346000DF91CF910895EA01CE17DF07E8F54A8191
:103470005B819E0141155105B1F7E901FB83EA83A8
:1034800049915991C40FD51FEC17FD0761F4808154
:1034900091810296840F951FE90199838883828127
:1034A00093819B838A83F0E0E0E012968D919C915A
:1034B00013970097B9F52D913C911197CD01029684
:1034C000820F931F209184063091850628173907B3
:1034D00039F6309751F51092870610928606B09310
:1034E0008506A0938406BCCFD383C28340815181DB
:1034F000840F951FC817D90761F44E5F5F4F88810D
:103500009981480F591F518340838A819B819383FE
:1035100082832115310509F0B0CFF0938706E0933F
:1035200086069ECFFD01DC01C0CF13821282D7CF69
:10353000B0E0A0E0EEE9FAE10C943C188C010097B1
:1035400051F4CB010E9473198C01C801CDB7DEB7CD
:10355000E0E10C945818FC01E60FF71F9C01225083
:103560003109E217F30708F49DC0D901CD91DC9130
:103570001197C617D70798F0C530D10530F3CE01A3
:1035800004978617970708F3C61BD70B2297C1939A
:10359000D1936D937C93CF010E940F1AD6CF5B011C
:1035A000AC1ABD0A4C018C0E9D1EA0918606B091EE
:1035B0008706512C412CF12CE12C109731F580918C
:1035C0008406909185068815990509F05CC0461619
:1035D000570608F058C080910301909104010097AC
:1035E00041F48DB79EB74091070150910801841BAB
:1035F000950BE817F90708F055C0F0938506E0939E
:103600008406F90171836083A0CF8D919C911197FD
:1036100012966C90129713967C901397A815B90583
:1036200059F56C0142E0C40ED11CCA14DB0420F130
:10363000AC014A195B09DA011296159780F0628293
:10364000738251834083D9016D937C93E114F1041B
:1036500071F0D7011396FC93EE93129776CF2296D2
:103660008C0F9D1FF90191838083F301EFCFF093BD
:103670008706E093860669CF4816590608F42C01A0
:103680007D01D3019ACFCB010E9473197C01009771
:1036900049F0AE01B8010E945D1BC8010E940F1ADB
:1036A000870153CF10E000E050CF9111089581566B
:1036B0008A5108F4805285580895FB01DC0102C04C
:1036C00001900D9241505040D8F70895FB01DC0164
:1036D0008D91019080190110D9F3990B0895FB0188
:1036E000DC0101900D920020E1F70895AEE0B0E01A
:1036F000ECE7FBE10C9448180D891E8986E08C8369
:103700001A8309838FEF9FE79E838D83AE01475E07
:103710005F4F6F89788DCE0101960E94991B2F8192
:103720003885020F131FF80110822E96E4E00C94E6
:103730006418ABE0B0E0EFE9FBE10C943A187C01CF
:103740003B018A01FC0117821682838181FFC8C177
:10375000CE0101965C01F7019381F30193FD859100
:1037600093FF81913F01882309F453C1853239F4D5
:1037700093FD859193FF81913F01853229F4B70133
:1037800090E00E94891DE7CF912C212C312CFFE184
:10379000F31538F08B3211F190F4803209F1833255
:1037A00029F137FC3CC020ED280F2A3050F536FEB9
:1037B00020C08AE0989E200D1124922E06C08D32E2
:1037C00091F0803371F7689430F8F30193FD85919F
:1037D00093FF81913F018111DACF21C0689431F8C4
:1037E000689432F8F2CF689433F8EFCF689434F8E5
:1037F000ECCFEAE02E9E200D1124222E689435F89D
:10380000E4CF8E3229F436FC04C1689436F8DDCF5B
:103810008C3619F4689437F8D8CF8836B1F2982FDF
:103820009F7D95549330E0F08336A1F18337C1F149
:10383000833509F063C02801F2E04F0E511CF801F6
:10384000C080D180692D70E036FC02C06FEF7FEF41
:10385000C6010E94731D4C01689437F882010AC0AA
:103860000C5F1F4FFFE3F98388248394912C65013B
:10387000E89437F833FE2DC0522C8114910471F571
:10388000552009F468CFB70180E290E00E94891DBD
:103890005A94F6CFF801808189830E5F1F4FE4CFE1
:1038A0002801F2E04F0E511CF801C080D180692D33
:1038B00070E036FC02C06FEF7FEFC6010E947E1DF4
:1038C0004C018201D5CFB70180E290E00E94891DB2
:1038D0002A942814190409F0B0F7CECFF60137FC6A
:1038E000859137FE81916F01B70190E00E94891D9B
:1038F00051105A94F1E08F1A9108BFCF843619F015
:10390000893609F077C0F80137FE6BC0608171819C
:10391000828193810C5F1F4FF32DFF763F2E97FF1F
:1039200009C090958095709561957F4F8F4F9F4FFF
:10393000689437F82AE030E0A5010E94B91DC82E2E
:10394000CA188C2C432C36FE0CC0E89440F8C914DD
:1039500040F434FE05C032FC03C0F32DFE7E4F2E32
:10396000892C44FE95C0FE01EC0DF11D8081803351
:1039700009F087C0242D297E422E842D8870582E70
:1039800043FC95C040FE8FC09C2C821418F42C0C74
:10399000922C981844FE91C0B70180E390E00E94F9
:1039A000891D42FE09C088E790E041FE02C088E51B
:1039B00090E0B7010E94891DC91408F48AC0CA9416
:1039C000D12C9FEFC91AD90ACA0CDB1CF6018291CF
:1039D0006F01B70190E00E94891DAC14BD04B1F7DE
:1039E0004FCF60817181072E000C880B990B0E5F01
:1039F0001F4F92CFD32CE894D4F82AE030E08537DB
:103A000039F1232D297FD22E8F3601F148F48835E4
:103A1000A9F0F701868197812B96E2E10C94561864
:103A2000803749F08837A9F7D4FE02C06894D2F8ED
:103A300020E130E00DC06894D4F8F6CF34FE03C026
:103A4000822F8660D82E20E132E002C028E030E0EC
:103A5000F801D7FE0FC060817181828193810C5F74
:103A60001F4FA5010E94B91DC82ECA183D2CE8940D
:103A700037F867CF6081718190E080E00E5F1F4F63
:103A8000F0CF42FC02C0839478CF8394839475CFA7
:103A9000842D867809F471CFF6CFB70180E290E0EB
:103AA0000E94891D83948214C0F3512C73CF522C31
:103AB0005818821408F46ECFF8CF842D867809F454
:103AC0007BCF8BE241FE80E247FC8DE2B70190E0C4
:103AD00071CFB70180E390E00E94891D9A946CCF6A
:103AE0008FEF9FEF99CFFC0105906150704001105E
:103AF000D8F7809590958E0F9F1F0895FC01615017
:103B0000704001900110D8F7809590958E0F9F1FFF
:103B100008950F931F93CF93DF93182F092FEB0175
:103B20008B8181FD09C01FEF0FEF812F902FDF9157
:103B3000CF911F910F91089582FF14C02E813F8174
:103B40008C819D81281739073CF4E881F981CF01E8
:103B500001969983888310838E819F8101969F832C
:103B60008E83E3CFE885F985812F0995892BA1F311
:103B7000DACFFA01AA27283051F1203181F1E894F7
:103B80006F936E7F6E5F7F4F8F4F9F4FAF4FB1E050
:103B90003ED0B4E03CD0670F781F891F9A1FA11D4B
:103BA000680F791F8A1F911DA11D6A0F711D811D4C
:103BB000911DA11D20D009F468943F912AE0269F11
:103BC00011243019305D3193DEF6CF010895462F70
:103BD0004770405D4193B3E00FD0C9F7F6CF462F51
:103BE0004F70405D4A3318F0495D31FD40524193BA
:103BF00002D0A9F7EACFB4E0A69597958795779577
:103C00006795BA95C9F700976105710508959B01FD
:103C1000AC010A2E06945795479537952795BA9586
:103C2000C9F7620F731F841F951FA01D0895F89494
:103C3000FFCF0F2701000088068000000302050067
:103C4000030501040602041F1C1F1E1F1E1F1F1E4A
:103C50001F1E1F000000004001A000CD008D01FECE
:103C600000DC00F0000000000048051B057705F1AE
:103C70000414050105F2040D0A004F70656E696EAB
:103C80006720646F6F7200446F6F72206E6F7420D4
:103C90006F70656E2C20636865636B206167616976
:103CA0006E00446F6F72206F70656E004F6F70739F
:103CB0002C20646F6F72202A6E6F742A206F7065DB
:103CC0006E00436C6F73696E6720646F6F7200449F
:103CD0006F6F72206E6F7420636C6F7365642C203D
:103CE00074727920616761696E00446F6F7220633E
:103CF0006C6F736564004F6F70732C20646F6F720C
:103D0000202A6E6F742A20636C6F73656400300024
:103D10002C207E3A20002C20446F6F722069732083
:103D2000002028636C6F736564290020286F70651C
:103D30006E29002C204F70656E204C44523A2000B2
:103D40002C20436C6F7365204C44523A20002C2089
:103D50005374617475733A20002C2054696D65208A
:103D60006E6F773A20002C2054696D65206F706566
:103D70006E3A20002C2054696D6520636C6F73656A
:103D8000643A200057616974696E6720666F72201B
:103D9000636F6D6D616E6420005265636569766561
:103DA000643A20004C004354004F00507265737316
:103DB00020656E74657220746F20636F6E74696E17
:103DC0007565005300520054656D706572617475BD
:103DD00072653A20006E616E00696E66006F7666ED
:103DE00000C2B0430049004D6561737572656D6531
:103DF0006E74733A00417665726167653A20002CF3
:103E0000204D696E696D756D3A20002C204D6178EA
:103E1000696D756D3A200040204D696E696D756D54
:103E20003A200031003200330048004F3A204F70F2
:103E3000656E20646F6F7200433A20436C6F736548
:103E400020646F6F7200532878293A205265736599
:103E5000742073746174757320746F2078202864E3
:103E6000656661756C7420302900523C74696D651B
:103E7000733E3A20526570656174206F70656E659F
:103E80006E20616E6420636C6F73696E6720646F6F
:103E90006F7200303A204C656473206F66660031A3
:103EA0003A204C6564206F70656E206F6E00323A68
:103EB000204C656420636C6F7365206F6E00333A2D
:103EC000204C6564206F70656E20616E6420636CA9
:103ED0006F736564206F6E00493A20496E666F000B
:103EE0004C3A204C6F6720746F67676C65004354D1
:103EF0003C64642F6D6D2F79792068683A6D6D3A56
:103F000073733E3A2053657420636C6F636B6D6FFF
:103F100064756C6520646174652F74696D65005407
:103F20003A2054656D706572617475726500483A27
:103F300020546869732068656C7000646F6F72202C
:103F40006E6F74206F70656E00646F6F72206E6F9D
:103F50007420636C6F73656420616674657220748D
:103F6000696D656F757400646F6F72206E6F742079
:103F7000636C6F73656420616674657220313020F4
:103F8000747269657320746F207469676874656EF4
:103F900000536F6D657468696E67206973206E6F7A
:103FA00074206F6B20282564202D202573293B2049
:103FB00069646C65002054696D6520616374756186
:103FC0006C6C79206F70656E3A2000436869636B92
:103FD000656E2068617463682031372F30312F326D
:103FE0003032312E20436F707972696768742070A7
:103FF000656E6F00436C6F636B206D6F64756C65ED
:1040000020666F756E6400436C6F636B206D6F6428
:10401000756C65206E6F7420666F756E64005374E6
:08402000617274696E67000013
:107800000C94343C0C94513C0C94513C0C94513CE1
:107810000C94513C0C94513C0C94513C0C94513CB4
:107820000C94513C0C94513C0C94513C0C94513CA4
:107830000C94513C0C94513C0C94513C0C94513C94
:107840000C94513C0C94513C0C94513C0C94513C84
:107850000C94513C0C94513C0C94513C0C94513C74
:107860000C94513C0C94513C11241FBECFEFD8E036
:10787000DEBFCDBF11E0A0E0B1E0ECE9FFE702C060
:1078800005900D92A230B107D9F712E0A2E0B1E065
:1078900001C01D92AD30B107E1F70E942D3D0C945F
:1078A000CC3F0C94003C982F959595959595959582
:1078B000905D8F708A307CF0282F295A8091C0000B
:1078C00085FFFCCF9093C6008091C00085FFFCCF60
:1078D0002093C6000895282F205DF0CF982F809127
:1078E000C00085FFFCCF9093C6000895EF92FF92F1
:1078F0000F931F93EE24FF2487018091C00087FD22
:1079000017C00894E11CF11C011D111D81E4E8164B
:1079100082E4F8068FE0080780E0180770F3E09132
:107920000401F091050109958091C00087FFE9CF1E
:107930008091C6001F910F91FF90EF9008950E94D3
:10794000763C982F8091C00085FFFCCF9093C600B5
:1079500091362CF490330CF09053892F089597555D
:10796000892F08951F930E949F3C182F0E949F3CCF
:107970001295107F810F1F9108951F93182F882350
:1079800021F00E94763C1150E1F71F9108951F935A
:10799000182F0E94763C803249F0809103018F5F5E
:1079A000809303018530C1F01F9108958091C0003C
:1079B00085FFFCCF84E18093C6008091C00085FFE5
:1079C000FCCF1093C6008091C00085FFFCCF80E102
:1079D0008093C6001F910895E0910401F091050184
:1079E00009951F9108950E94763C803241F0809164
:1079F00003018F5F80930301853081F008958091AA
:107A0000C00085FFFCCF84E18093C6008091C00058
:107A100085FFFCCF80E18093C6000895E0910401CA
:107A2000F09105010995089540E951E08823A1F0FE
:107A30002D9A28EE33E0FA013197F1F721503040CA
:107A4000D1F72D9828EE33E0FA013197F1F7215064
:107A50003040D1F7815061F708953F924F925F9285
:107A60006F927F928F929F92AF92BF92CF92DF924E
:107A7000EF92FF920F931F93CF93DF93000080E16B
:107A80008093C4001092C50088E18093C10086E015
:107A90008093C2005098589A259A81E00E94143D24
:107AA00024E1F22E9EE1E92E85E9D82E0FE0C02ECA
:107AB00010E1B12EAA24A394B1E49B2EA6E58A2E50
:107AC000F2E57F2EE0E26E2E79E4572E63E5462E36
:107AD00050E5352E0E94763C8033B1F18133B9F107
:107AE000803409F46FC0813409F476C0823409F41B
:107AF00085C0853409F488C0803531F1823521F1A3
:107B0000813511F1853509F485C0863509F48DC0BC
:107B1000843609F496C0843709F403C1853709F423
:107B200072C1863709F466C0809103018F5F80932C
:107B30000301853079F6E0910401F0910501099582
:107B40000E94763C803351F60E94F33CC3CF0E94E2
:107B5000763C803249F78091C00085FFFCCFF092DF
:107B6000C6008091C00085FFFCCF9092C600809136
:107B7000C00085FFFCCF8092C6008091C00085FFC9
:107B8000FCCF7092C6008091C00085FFFCCF609250
:107B9000C6008091C00085FFFCCF5092C600809146
:107BA000C00085FFFCCF4092C6008091C00085FFD9
:107BB000FCCF3092C6008091C00085FFFCCFB09210
:107BC000C60088CF0E94763C863808F4BDCF0E945C
:107BD000763C0E94F33C7ECF0E94763C803809F4CC
:107BE0009CC0813809F40BC1823809F43CC1883942
:107BF00009F48FC080E00E94C73C6CCF84E10E94F2
:107C0000BD3C0E94F33C66CF85E00E94BD3C0E94D3
:107C1000F33C60CF0E94763C809306010E94763C44
:107C2000809307010E94F33C55CF0E94763C80333D
:107C300009F41DC183E00E94BD3C80E00E94C73C66
:107C400049CF0E94763C809309020E94763C809343
:107C5000080280910C028E7F80930C020E94763C79
:107C6000853409F415C18091080290910902892B8D
:107C700089F000E010E00E94763CF801E85FFE4FDA
:107C800080830F5F1F4F80910802909109020817AF
:107C9000190788F30E94763C803209F045CF809125
:107CA0000C0280FF01C16091060170910701660F0F
:107CB000771F7093070160930601A0910802B091AD
:107CC00009021097C9F0E8E0F1E09B01AD014E0F09
:107CD0005F1FF999FECF32BD21BD819180BDFA9A17
:107CE000F99A2F5F3F4FE417F50799F76A0F7B1F4B
:107CF00070930701609306018091C00085FFFCCF5F
:107D0000F092C6008091C00085FFFCCFB092C60003
:107D1000E1CE83E00E94C73CDDCE82E00E94C73CFA
:107D2000D9CE0E94763C809309020E94763C8093D3
:107D300008028091060190910701880F991F909386
:107D40000701809306010E94763C853409F4A6C0A1
:107D500080910C028E7F80930C020E94763C8032D0
:107D600009F0B8CE8091C00085FFFCCFF092C6002C
:107D7000609108027091090261157105B9F140E046
:107D800050E080910C02A82FA170B82FB27011C0E2
:107D9000BB2309F45CC0E0910601F0910701319624
:107DA000F0930701E09306014F5F5F4F46175707B7
:107DB000E8F4AA2369F3F999FECF209106013091E6
:107DC000070132BD21BDF89A90B58091C00085FFB2
:107DD000FCCF9093C6002F5F3F4F30930701209355
:107DE00006014F5F5F4F4617570718F38091C00099
:107DF00085FDE5CE8091C00085FFF8CFE0CE81E023
:107E00000E94C73C67CE0E94763C803209F08CCE3F
:107E10008091C00085FFFCCFF092C6008091C00029
:107E200085FFFCCFE092C6008091C00085FFFCCFAB
:107E3000D092C6008091C00085FFFCCFC092C600E2
:107E40008091C00085FFFCCFB092C60043CEE09188
:107E50000601F091070194918091C00085FFFCCF4D
:107E60009093C6009CCF80E10E94C73C33CE0E9415
:107E7000763C0E94763C182F0E94763C112309F430
:107E800083C0113009F484C08FE00E94C73C22CE29
:107E900080910C02816080930C02E5CE80910C02EF
:107EA000816080930C0259CF809107018823880F4D
:107EB000880B8A2180930B02809106019091070123
:107EC000880F991F90930701809306018091080203
:107ED00080FF09C080910802909109020196909359
:107EE000090280930802F894F999FECF1127E091D6
:107EF0000601F0910701C8E0D1E08091080290915D
:107F00000902103091F40091570001700130D9F34B
:107F100003E000935700E89500915700017001308D
:107F2000D9F301E100935700E89509901990009169
:107F3000570001700130D9F301E000935700E89534
:107F40001395103498F011270091570001700130FB
:107F5000D9F305E000935700E895009157000170B0
:107F60000130D9F301E100935700E895329602976A
:107F700009F0C7CF103011F00296E5CF112480919F
:107F8000C00085FFB9CEBCCE8EE10E94C73CA2CD19
:0E7F900085E90E94C73C9ECDF894FFCF80008B
:00000001FF
